{
  "contractName": "RewardsEngine",
  "abi": [
    {
      "inputs": [
        {
          "internalType": "address",
          "name": "rewardToken",
          "type": "address"
        },
        {
          "internalType": "address",
          "name": "conditionalTokens",
          "type": "address"
        }
      ],
      "stateMutability": "nonpayable",
      "type": "constructor"
    },
    {
      "inputs": [
        {
          "internalType": "bytes4",
          "name": "interfaceId",
          "type": "bytes4"
        }
      ],
      "name": "supportsInterface",
      "outputs": [
        {
          "internalType": "bool",
          "name": "",
          "type": "bool"
        }
      ],
      "stateMutability": "view",
      "type": "function",
      "constant": true
    },
    {
      "inputs": [
        {
          "internalType": "address",
          "name": "acctId",
          "type": "address"
        }
      ],
      "name": "setOracle",
      "outputs": [],
      "stateMutability": "nonpayable",
      "type": "function"
    },
    {
      "inputs": [
        {
          "internalType": "address",
          "name": "acctId",
          "type": "address"
        }
      ],
      "name": "setRewardsBank",
      "outputs": [],
      "stateMutability": "nonpayable",
      "type": "function"
    },
    {
      "inputs": [],
      "name": "mintRewardsForBank",
      "outputs": [],
      "stateMutability": "nonpayable",
      "type": "function"
    },
    {
      "inputs": [
        {
          "internalType": "bytes8",
          "name": "vacancyCode",
          "type": "bytes8"
        },
        {
          "internalType": "uint256",
          "name": "rewardAmount",
          "type": "uint256"
        }
      ],
      "name": "openVacancy",
      "outputs": [],
      "stateMutability": "nonpayable",
      "type": "function"
    },
    {
      "inputs": [
        {
          "internalType": "bytes8",
          "name": "vacancyCode",
          "type": "bytes8"
        }
      ],
      "name": "getCandidates",
      "outputs": [],
      "stateMutability": "nonpayable",
      "type": "function"
    },
    {
      "inputs": [
        {
          "internalType": "bytes8",
          "name": "vacancyCode",
          "type": "bytes8"
        },
        {
          "internalType": "bytes8",
          "name": "candidateCode",
          "type": "bytes8"
        }
      ],
      "name": "shortlistCandidate",
      "outputs": [],
      "stateMutability": "nonpayable",
      "type": "function"
    },
    {
      "inputs": [
        {
          "internalType": "bytes8",
          "name": "vacancyCode",
          "type": "bytes8"
        }
      ],
      "name": "closeVacancy",
      "outputs": [],
      "stateMutability": "nonpayable",
      "type": "function"
    },
    {
      "inputs": [],
      "name": "getVacancies",
      "outputs": [],
      "stateMutability": "nonpayable",
      "type": "function"
    },
    {
      "inputs": [
        {
          "internalType": "bytes8",
          "name": "vacancyCode",
          "type": "bytes8"
        },
        {
          "internalType": "bytes8",
          "name": "candidateCode",
          "type": "bytes8"
        }
      ],
      "name": "referCandidate",
      "outputs": [],
      "stateMutability": "nonpayable",
      "type": "function"
    },
    {
      "inputs": [
        {
          "internalType": "bytes8",
          "name": "vacancyCode",
          "type": "bytes8"
        },
        {
          "internalType": "bytes8",
          "name": "candidateCode",
          "type": "bytes8"
        }
      ],
      "name": "redeemRewards",
      "outputs": [],
      "stateMutability": "nonpayable",
      "type": "function"
    },
    {
      "inputs": [
        {
          "internalType": "bytes8",
          "name": "vacancyCode",
          "type": "bytes8"
        },
        {
          "internalType": "bytes8",
          "name": "candidateCode",
          "type": "bytes8"
        }
      ],
      "name": "candidateJoins",
      "outputs": [],
      "stateMutability": "nonpayable",
      "type": "function"
    },
    {
      "inputs": [
        {
          "internalType": "bytes8",
          "name": "vacancyCode",
          "type": "bytes8"
        },
        {
          "internalType": "bytes8",
          "name": "candidateCode",
          "type": "bytes8"
        }
      ],
      "name": "candidateCompletes1Year",
      "outputs": [],
      "stateMutability": "nonpayable",
      "type": "function"
    },
    {
      "inputs": [
        {
          "internalType": "address",
          "name": "operator",
          "type": "address"
        },
        {
          "internalType": "address",
          "name": "from",
          "type": "address"
        },
        {
          "internalType": "uint256",
          "name": "id",
          "type": "uint256"
        },
        {
          "internalType": "uint256",
          "name": "value",
          "type": "uint256"
        },
        {
          "internalType": "bytes",
          "name": "data",
          "type": "bytes"
        }
      ],
      "name": "onERC1155Received",
      "outputs": [
        {
          "internalType": "bytes4",
          "name": "",
          "type": "bytes4"
        }
      ],
      "stateMutability": "nonpayable",
      "type": "function"
    },
    {
      "inputs": [
        {
          "internalType": "address",
          "name": "operator",
          "type": "address"
        },
        {
          "internalType": "address",
          "name": "from",
          "type": "address"
        },
        {
          "internalType": "uint256[]",
          "name": "ids",
          "type": "uint256[]"
        },
        {
          "internalType": "uint256[]",
          "name": "values",
          "type": "uint256[]"
        },
        {
          "internalType": "bytes",
          "name": "data",
          "type": "bytes"
        }
      ],
      "name": "onERC1155BatchReceived",
      "outputs": [
        {
          "internalType": "bytes4",
          "name": "",
          "type": "bytes4"
        }
      ],
      "stateMutability": "nonpayable",
      "type": "function"
    }
  ],
  "bytecode": "0x60806040526000801b60065534801561001757600080fd5b50604051611af0380380611af08339818101604052604081101561003a57600080fd5b81019080805190602001909291908051906020019092919050505061006b6301ffc9a760e01b61015460201b60201c565b61008a63bc197c8160e01b63f23a6e6160e01b1861015460201b60201c565b81600160006101000a81548173ffffffffffffffffffffffffffffffffffffffff021916908373ffffffffffffffffffffffffffffffffffffffff16021790555081600260006101000a81548173ffffffffffffffffffffffffffffffffffffffff021916908373ffffffffffffffffffffffffffffffffffffffff16021790555080600360006101000a81548173ffffffffffffffffffffffffffffffffffffffff021916908373ffffffffffffffffffffffffffffffffffffffff160217905550505061025c565b63ffffffff60e01b817bffffffffffffffffffffffffffffffffffffffffffffffffffffffff191614156101f0576040517f08c379a000000000000000000000000000000000000000000000000000000000815260040180806020018281038252601c8152602001807f4552433136353a20696e76616c696420696e746572666163652069640000000081525060200191505060405180910390fd5b6001600080837bffffffffffffffffffffffffffffffffffffffffffffffffffffffff19167bffffffffffffffffffffffffffffffffffffffffffffffffffffffff1916815260200190815260200160002060006101000a81548160ff02191690831515021790555050565b6118858061026b6000396000f3fe608060405234801561001057600080fd5b50600436106100f55760003560e01c8063af49b8a211610097578063e9f9ddca11610066578063e9f9ddca146105d9578063f1b8c4e914610647578063f23a6e6114610651578063f8412e3e14610751576100f5565b8063af49b8a21461031e578063bc197c811461038c578063cac57b2c14610522578063ccdaddf31461056b576100f5565b80636e1e7acb116100d35780636e1e7acb1461021e57806371a062ae1461028c5780637adbf973146102965780638427c800146102da576100f5565b806301ffc9a7146100fa57806326fb02e91461015d57806341deaeea146101cb575b600080fd5b6101456004803603602081101561011057600080fd5b8101908080357bffffffffffffffffffffffffffffffffffffffffffffffffffffffff1916906020019092919050505061079a565b60405180821515815260200191505060405180910390f35b6101c96004803603604081101561017357600080fd5b81019080803577ffffffffffffffffffffffffffffffffffffffffffffffff19169060200190929190803577ffffffffffffffffffffffffffffffffffffffffffffffff19169060200190929190505050610801565b005b61021c600480360360408110156101e157600080fd5b81019080803577ffffffffffffffffffffffffffffffffffffffffffffffff19169060200190929190803590602001909291905050506109c5565b005b61028a6004803603604081101561023457600080fd5b81019080803577ffffffffffffffffffffffffffffffffffffffffffffffff19169060200190929190803577ffffffffffffffffffffffffffffffffffffffffffffffff19169060200190929190505050610aba565b005b610294611213565b005b6102d8600480360360208110156102ac57600080fd5b81019080803573ffffffffffffffffffffffffffffffffffffffff169060200190929190505050611215565b005b61031c600480360360208110156102f057600080fd5b81019080803573ffffffffffffffffffffffffffffffffffffffff169060200190929190505050611259565b005b61038a6004803603604081101561033457600080fd5b81019080803577ffffffffffffffffffffffffffffffffffffffffffffffff19169060200190929190803577ffffffffffffffffffffffffffffffffffffffffffffffff1916906020019092919050505061129d565b005b6104ed600480360360a08110156103a257600080fd5b81019080803573ffffffffffffffffffffffffffffffffffffffff169060200190929190803573ffffffffffffffffffffffffffffffffffffffff169060200190929190803590602001906401000000008111156103ff57600080fd5b82018360208201111561041157600080fd5b8035906020019184602083028401116401000000008311171561043357600080fd5b90919293919293908035906020019064010000000081111561045457600080fd5b82018360208201111561046657600080fd5b8035906020019184602083028401116401000000008311171561048857600080fd5b9091929391929390803590602001906401000000008111156104a957600080fd5b8201836020820111156104bb57600080fd5b803590602001918460018302840111640100000000831117156104dd57600080fd5b90919293919293905050506112a1565b60405180827bffffffffffffffffffffffffffffffffffffffffffffffffffffffff1916815260200191505060405180910390f35b6105696004803603602081101561053857600080fd5b81019080803577ffffffffffffffffffffffffffffffffffffffffffffffff191690602001909291905050506112b9565b005b6105d76004803603604081101561058157600080fd5b81019080803577ffffffffffffffffffffffffffffffffffffffffffffffff19169060200190929190803577ffffffffffffffffffffffffffffffffffffffffffffffff191690602001909291905050506112bc565b005b610645600480360360408110156105ef57600080fd5b81019080803577ffffffffffffffffffffffffffffffffffffffffffffffff19169060200190929190803577ffffffffffffffffffffffffffffffffffffffffffffffff1916906020019092919050505061147f565b005b61064f611672565b005b61071c600480360360a081101561066757600080fd5b81019080803573ffffffffffffffffffffffffffffffffffffffff169060200190929190803573ffffffffffffffffffffffffffffffffffffffff1690602001909291908035906020019092919080359060200190929190803590602001906401000000008111156106d857600080fd5b8201836020820111156106ea57600080fd5b8035906020019184600183028401116401000000008311171561070c57600080fd5b9091929391929390505050611836565b60405180827bffffffffffffffffffffffffffffffffffffffffffffffffffffffff1916815260200191505060405180910390f35b6107986004803603602081101561076757600080fd5b81019080803577ffffffffffffffffffffffffffffffffffffffffffffffff1916906020019092919050505061184c565b005b6000806000837bffffffffffffffffffffffffffffffffffffffffffffffffffffffff19167bffffffffffffffffffffffffffffffffffffffffffffffffffffffff1916815260200190815260200160002060009054906101000a900460ff169050919050565b6000600160c01b60108377ffffffffffffffffffffffffffffffffffffffffffffffff1916901b60188577ffffffffffffffffffffffffffffffffffffffffffffffff1916901b171777ffffffffffffffffffffffffffffffffffffffffffffffff191690506060600267ffffffffffffffff8111801561088157600080fd5b506040519080825280602002602001820160405280156108b05781602001602082028036833780820191505090505b5090506000816000815181106108c257fe5b6020026020010181815250506001816001815181106108dd57fe5b602002602001018181525050600360009054906101000a900473ffffffffffffffffffffffffffffffffffffffff1673ffffffffffffffffffffffffffffffffffffffff1663c49298ac83836040518363ffffffff1660e01b81526004018083815260200180602001828103825283818151815260200191508051906020019060200280838360005b83811015610981578082015181840152602081019050610966565b505050509050019350505050600060405180830381600087803b1580156109a757600080fd5b505af11580156109bb573d6000803e3d6000fd5b5050505050505050565b600160009054906101000a900473ffffffffffffffffffffffffffffffffffffffff1673ffffffffffffffffffffffffffffffffffffffff1663095ea7b3600360009054906101000a900473ffffffffffffffffffffffffffffffffffffffff16836040518363ffffffff1660e01b8152600401808373ffffffffffffffffffffffffffffffffffffffff16815260200182815260200192505050602060405180830381600087803b158015610a7a57600080fd5b505af1158015610a8e573d6000803e3d6000fd5b505050506040513d6020811015610aa457600080fd5b8101908080519060200190929190505050505050565b6000600290506060600267ffffffffffffffff81118015610ada57600080fd5b50604051908082528060200260200182016040528015610b095781602001602082028036833780820191505090505b509050600181600081518110610b1b57fe5b602002602001018181525050600281600181518110610b3657fe5b60200260200101818152505060006032905060008060c01b60108677ffffffffffffffffffffffffffffffffffffffffffffffff1916901b60188877ffffffffffffffffffffffffffffffffffffffffffffffff1916901b171777ffffffffffffffffffffffffffffffffffffffffffffffff19169050600360009054906101000a900473ffffffffffffffffffffffffffffffffffffffff1673ffffffffffffffffffffffffffffffffffffffff1663d96ee754600460009054906101000a900473ffffffffffffffffffffffffffffffffffffffff1683876040518463ffffffff1660e01b8152600401808473ffffffffffffffffffffffffffffffffffffffff1681526020018381526020018281526020019350505050600060405180830381600087803b158015610c6a57600080fd5b505af1158015610c7e573d6000803e3d6000fd5b505050506000600360009054906101000a900473ffffffffffffffffffffffffffffffffffffffff1673ffffffffffffffffffffffffffffffffffffffff1663852c6ae2600460009054906101000a900473ffffffffffffffffffffffffffffffffffffffff1684886040518463ffffffff1660e01b8152600401808473ffffffffffffffffffffffffffffffffffffffff168152602001838152602001828152602001935050505060206040518083038186803b158015610d3f57600080fd5b505afa158015610d53573d6000803e3d6000fd5b505050506040513d6020811015610d6957600080fd5b81019080805190602001909291905050509050600360009054906101000a900473ffffffffffffffffffffffffffffffffffffffff1673ffffffffffffffffffffffffffffffffffffffff166372ce4275600160009054906101000a900473ffffffffffffffffffffffffffffffffffffffff166006548488886040518663ffffffff1660e01b8152600401808673ffffffffffffffffffffffffffffffffffffffff16815260200185815260200184815260200180602001838152602001828103825284818151815260200191508051906020019060200280838360005b83811015610e63578082015181840152602081019050610e48565b505050509050019650505050505050600060405180830381600087803b158015610e8c57600080fd5b505af1158015610ea0573d6000803e3d6000fd5b505050506000603290506000600160c01b60108977ffffffffffffffffffffffffffffffffffffffffffffffff1916901b60188b77ffffffffffffffffffffffffffffffffffffffffffffffff1916901b171777ffffffffffffffffffffffffffffffffffffffffffffffff19169050600360009054906101000a900473ffffffffffffffffffffffffffffffffffffffff1673ffffffffffffffffffffffffffffffffffffffff1663d96ee754600460009054906101000a900473ffffffffffffffffffffffffffffffffffffffff16838a6040518463ffffffff1660e01b8152600401808473ffffffffffffffffffffffffffffffffffffffff1681526020018381526020018281526020019350505050600060405180830381600087803b158015610fcd57600080fd5b505af1158015610fe1573d6000803e3d6000fd5b505050506000600360009054906101000a900473ffffffffffffffffffffffffffffffffffffffff1673ffffffffffffffffffffffffffffffffffffffff1663852c6ae2600460009054906101000a900473ffffffffffffffffffffffffffffffffffffffff16848b6040518463ffffffff1660e01b8152600401808473ffffffffffffffffffffffffffffffffffffffff168152602001838152602001828152602001935050505060206040518083038186803b1580156110a257600080fd5b505afa1580156110b6573d6000803e3d6000fd5b505050506040513d60208110156110cc57600080fd5b81019080805190602001909291905050509050600360009054906101000a900473ffffffffffffffffffffffffffffffffffffffff1673ffffffffffffffffffffffffffffffffffffffff166372ce4275600160009054906101000a900473ffffffffffffffffffffffffffffffffffffffff16600654848b886040518663ffffffff1660e01b8152600401808673ffffffffffffffffffffffffffffffffffffffff16815260200185815260200184815260200180602001838152602001828103825284818151815260200191508051906020019060200280838360005b838110156111c65780820151818401526020810190506111ab565b505050509050019650505050505050600060405180830381600087803b1580156111ef57600080fd5b505af1158015611203573d6000803e3d6000fd5b5050505050505050505050505050565b565b80600460006101000a81548173ffffffffffffffffffffffffffffffffffffffff021916908373ffffffffffffffffffffffffffffffffffffffff16021790555050565b80600560006101000a81548173ffffffffffffffffffffffffffffffffffffffff021916908373ffffffffffffffffffffffffffffffffffffffff16021790555050565b5050565b600063bc197c8160e01b905098975050505050505050565b50565b60008060c01b60108377ffffffffffffffffffffffffffffffffffffffffffffffff1916901b60188577ffffffffffffffffffffffffffffffffffffffffffffffff1916901b171777ffffffffffffffffffffffffffffffffffffffffffffffff191690506060600267ffffffffffffffff8111801561133b57600080fd5b5060405190808252806020026020018201604052801561136a5781602001602082028036833780820191505090505b50905060008160008151811061137c57fe5b60200260200101818152505060018160018151811061139757fe5b602002602001018181525050600360009054906101000a900473ffffffffffffffffffffffffffffffffffffffff1673ffffffffffffffffffffffffffffffffffffffff1663c49298ac83836040518363ffffffff1660e01b81526004018083815260200180602001828103825283818151815260200191508051906020019060200280838360005b8381101561143b578082015181840152602081019050611420565b505050509050019350505050600060405180830381600087803b15801561146157600080fd5b505af1158015611475573d6000803e3d6000fd5b5050505050505050565b6000600160c01b60108377ffffffffffffffffffffffffffffffffffffffffffffffff1916901b60188577ffffffffffffffffffffffffffffffffffffffffffffffff1916901b171777ffffffffffffffffffffffffffffffffffffffffffffffff191690506060600167ffffffffffffffff811180156114ff57600080fd5b5060405190808252806020026020018201604052801561152e5781602001602082028036833780820191505090505b50905060028160008151811061154057fe5b602002602001018181525050600360009054906101000a900473ffffffffffffffffffffffffffffffffffffffff1673ffffffffffffffffffffffffffffffffffffffff166301b7037c600160009054906101000a900473ffffffffffffffffffffffffffffffffffffffff1660065485856040518563ffffffff1660e01b8152600401808573ffffffffffffffffffffffffffffffffffffffff16815260200184815260200183815260200180602001828103825283818151815260200191508051906020019060200280838360005b8381101561162c578082015181840152602081019050611611565b5050505090500195505050505050600060405180830381600087803b15801561165457600080fd5b505af1158015611668573d6000803e3d6000fd5b5050505050505050565b6000600160009054906101000a900473ffffffffffffffffffffffffffffffffffffffff1673ffffffffffffffffffffffffffffffffffffffff166370a08231600560009054906101000a900473ffffffffffffffffffffffffffffffffffffffff166040518263ffffffff1660e01b8152600401808273ffffffffffffffffffffffffffffffffffffffff16815260200191505060206040518083038186803b15801561171f57600080fd5b505afa158015611733573d6000803e3d6000fd5b505050506040513d602081101561174957600080fd5b810190808051906020019092919050505090506000816103e8039050600260009054906101000a900473ffffffffffffffffffffffffffffffffffffffff1673ffffffffffffffffffffffffffffffffffffffff166340c10f19600560009054906101000a900473ffffffffffffffffffffffffffffffffffffffff16836040518363ffffffff1660e01b8152600401808373ffffffffffffffffffffffffffffffffffffffff16815260200182815260200192505050600060405180830381600087803b15801561181a57600080fd5b505af115801561182e573d6000803e3d6000fd5b505050505050565b600063f23a6e6160e01b90509695505050505050565b5056fea2646970667358221220ef1b78f2674b959e2a689dd620416ad8c8d9c501950562b7b04fb3e4a51a2bd364736f6c634300060c0033",
  "immutableReferences": {},
  "source": "// SPDX-License-Identifier: UNLICENSED\n\npragma solidity ^0.6.0;\n\nimport { RewardToken } from \"./RewardToken.sol\";\nimport { ConditionalTokens } from \"./ConditionalTokens.sol\";\n\n//import { IERC20 } from \"github.com/OpenZeppelin/openzeppelin-contracts/contracts/token/ERC20/IERC20.sol\";\n//import { ERC1155Receiver } from \"github.com/OpenZeppelin/openzeppelin-contracts/contracts/token/ERC1155/ERC1155Receiver.sol\";\nimport { IERC20 } from \"./openzeppelin-contracts/IERC20.sol\";\nimport { ERC1155Receiver } from \"./openzeppelin-contracts/ERC1155Receiver.sol\";\n\n//import { IERC20 } from \"./IERC20.sol\";\n//import { IERC1155 } from \"github.com/OpenZeppelin/openzeppelin-contracts/contracts/token/ERC1155/IERC1155.sol\";\n//import { IConditionalTokens } from \"./IConditionalTokens.sol\";\n\n/**\n * @title RewardEngine\n * @dev Process Rewards\n */\ncontract RewardsEngine is ERC1155Receiver {\n    IERC20 _rewardToken;\n    RewardToken _rewardTokenMint;\n    ConditionalTokens _conditionalTokens;\n    address private _oracleAcctId;\n    address private _rewardsBankAcctId;\n    bytes32 private _parentCollectionId = 0x0000000000000000000000000000000000000000000000000000000000000000;\n    \n    constructor(\n        address rewardToken,\n        address conditionalTokens\n        //address oracle,\n        //address bank\n    ) public {\n        _rewardToken = IERC20(rewardToken);\n        _rewardTokenMint = RewardToken(rewardToken);\n        _conditionalTokens = ConditionalTokens(conditionalTokens);\n        //_oracleAcctId = oracle;\n        //_rewardsBankAcctId = bank;\n    }\n\n    //// SysAdmin functions\n    \n    function setOracle(address acctId) external\n    {\n        _oracleAcctId = acctId;\n    }\n    \n    function setRewardsBank(address acctId) external\n    {\n        _rewardsBankAcctId = acctId;\n    }\n\n    function mintRewardsForBank() external\n    {\n        // system mints enough RewardToken to RewardBank\n        // To limit unlimited token flow, it can hold a maximum of 1000 amount\n        \n        uint256 balance = _rewardToken.balanceOf(_rewardsBankAcctId);\n        \n        uint256 gap = 1000 - balance;\n        \n        // TRANSACTION code\n        _rewardTokenMint.mint(_rewardsBankAcctId, gap);\n    }\n    \n    //// HR functions\n    \n    //2. OpenVacancy(vacancyId, rewardAmount, vacancyCount=1)\n    // desc: HR opens a Vacancy and approves some RewardToken\n    \n\n\n    function openVacancy(bytes8 vacancyCode, uint256 rewardAmount) external \n    {\n        //console.log(vacancyCode);\n        // assuming vacancyCount as 1\n        \n        //require (msg.sender == owner);\n        // TRANSACTION code - Approve the reward, for the Vacancy\n        _rewardToken.approve(address(_conditionalTokens), rewardAmount);\n        //_rewardToken.increaseAllowance(address(_conditionalTokens), rewardAmount);\n        \n    }\n    \n    function getCandidates(bytes8 vacancyCode) external \n    {\n        \n    }\n    \n    function shortlistCandidate(bytes8 vacancyCode, bytes8 candidateCode) external \n    {\n        uint256 outcomeSlotCount;\n        outcomeSlotCount = 2; // No, Yes [1,2]\n        \n        uint256[] memory partitions = new uint256[](2);\n        partitions[0] = 1;  // No, Yes [1,2]\n        partitions[1] = 2;  // No, Yes [1,2]\n        \n        // 1.\n        // let's skip Milestone-1 of 'Refer & Shortlist' condition, rewards 5%\n        \n        // 2.\n        // Milestone-2 of 'Candidate Joins' condition, rewards of 50 %\n        uint256 rewardAmount2 = 50;\n        \n        // questionId = generate unique byte32 based on (vacancyCode and candidateCode)\n        bytes32 questionId2;\n        questionId2 = vacancyCode<<24 | candidateCode<<16 | 0x0000000000000000;\n        \n        // Prepare the condition (transaction)\n        // TRANSACTION code\n        _conditionalTokens.prepareCondition(_oracleAcctId, questionId2, outcomeSlotCount);\n        \n        bytes32 conditionId2;\n        conditionId2 = _conditionalTokens.getConditionId(_oracleAcctId, questionId2, outcomeSlotCount);\n        \n        // Split the position\n        // TRANSACTION code\n        _conditionalTokens.splitPosition(_rewardToken, _parentCollectionId, conditionId2, partitions, rewardAmount2);\n        \n        // 3.\n        // Milestone-3 of 'Candidate Completes 1 year' condition, rewards of 50%\n        uint256 rewardAmount3 = 50;\n        \n        // questionId = generate unique byte32 based on (vacancyCode and candidateCode)\n        bytes32 questionId3;\n        questionId3 = vacancyCode<<24 | candidateCode<<16 | 0x0000000000000001;\n        \n        // Prepare the condition (transaction)\n        // TRANSACTION code\n        _conditionalTokens.prepareCondition(_oracleAcctId, questionId3, outcomeSlotCount);\n        \n        bytes32 conditionId3;\n        conditionId3 = _conditionalTokens.getConditionId(_oracleAcctId, questionId3, outcomeSlotCount);\n        \n        // Split the position\n        // TRANSACTION code\n        _conditionalTokens.splitPosition(_rewardToken, _parentCollectionId, conditionId3, partitions, rewardAmount3);\n        \n        \n    }\n    \n    \n    function closeVacancy(bytes8 vacancyCode) external \n    {\n        \n    }\n    \n    \n    \n    //// Employee functions\n    \n    function getVacancies() external\n    {\n        \n    }\n    \n    \n    function referCandidate(bytes8 vacancyCode, bytes8 candidateCode) external\n    {\n        \n    }\n    \n    function redeemRewards(bytes8 vacancyCode, bytes8 candidateCode) external\n    {\n        bytes32 questionId;\n        questionId = vacancyCode<<24 | candidateCode<<16 | 0x0000000000000001;\n        \n        // No, Yes [1,2]\n        uint256[] memory indexSets = new uint256[](1);\n        indexSets[0] = 2;\n\n        _conditionalTokens.redeemPositions(_rewardToken, _parentCollectionId, questionId, indexSets);\n    }\n    \n    \n    //// Oracle functions\n    function candidateJoins (bytes8 vacancyCode, bytes8 candidateCode) external\n    {\n        bytes32 questionId;\n        questionId = vacancyCode<<24 | candidateCode<<16 | 0x0;\n        \n        // No, Yes [1,2]\n        uint256[] memory payouts = new uint256[](2);\n        payouts[0] = 0;  \n        payouts[1] = 1;\n\n        _conditionalTokens.reportPayouts(questionId, payouts);\n    }\n    \n    function candidateCompletes1Year (bytes8 vacancyCode, bytes8 candidateCode) external\n    {\n        bytes32 questionId;\n        questionId = vacancyCode<<24 | candidateCode<<16 | 0x0000000000000001;\n        \n        // No, Yes [1,2]\n        uint256[] memory payouts = new uint256[](2);\n        payouts[0] = 0;  \n        payouts[1] = 1;\n\n        _conditionalTokens.reportPayouts(questionId, payouts);\n    }\n    \n\n    //// ERC1155Received interface implementations\n    \n    function onERC1155Received(address operator,address from,uint256 id,uint256 value,bytes calldata data) override external returns(bytes4)\n    {\n        return this.onERC1155Received.selector;\n    }\n    \n    function onERC1155BatchReceived(address operator, address from, uint256[] calldata ids, uint256[] calldata values, bytes calldata data) override external returns(bytes4)\n    {\n        return this.onERC1155BatchReceived.selector;\n    }\n    \n}\n\n/*\n\nEntities\nname: RewardBank, type: account, desc: An infinite source of RewardTokens (multisig?)\nname: HR(Oracle), type: account\nname: RewardToken, type: ERC20\nname: Employee, type: account\nname: Candidate, type: notdefined\n\n*/\n",
  "sourcePath": "/home/shri4net/Workspace/ctf-hr/contracts/RewardsEngine.sol",
  "compiler": {
    "name": "solc",
    "version": "0.6.12+commit.27d51765.Emscripten.clang"
  },
  "schemaVersion": "3.3.2",
  "updatedAt": "2020-12-16T16:51:23.296Z",
  "networkType": "ethereum",
  "devdoc": {
    "details": "Process Rewards",
    "kind": "dev",
    "methods": {
      "onERC1155BatchReceived(address,address,uint256[],uint256[],bytes)": {
        "details": "Handles the receipt of a multiple ERC1155 token types. This function is called at the end of a `safeBatchTransferFrom` after the balances have been updated. To accept the transfer(s), this must return `bytes4(keccak256(\"onERC1155BatchReceived(address,address,uint256[],uint256[],bytes)\"))` (i.e. 0xbc197c81, or its own function selector).",
        "params": {
          "data": "Additional data with no specified format",
          "from": "The address which previously owned the token",
          "ids": "An array containing ids of each token being transferred (order and length must match values array)",
          "operator": "The address which initiated the batch transfer (i.e. msg.sender)",
          "values": "An array containing amounts of each token being transferred (order and length must match ids array)"
        },
        "returns": {
          "_0": "`bytes4(keccak256(\"onERC1155BatchReceived(address,address,uint256[],uint256[],bytes)\"))` if transfer is allowed"
        }
      },
      "onERC1155Received(address,address,uint256,uint256,bytes)": {
        "details": "Handles the receipt of a single ERC1155 token type. This function is called at the end of a `safeTransferFrom` after the balance has been updated. To accept the transfer, this must return `bytes4(keccak256(\"onERC1155Received(address,address,uint256,uint256,bytes)\"))` (i.e. 0xf23a6e61, or its own function selector).",
        "params": {
          "data": "Additional data with no specified format",
          "from": "The address which previously owned the token",
          "id": "The ID of the token being transferred",
          "operator": "The address which initiated the transfer (i.e. msg.sender)",
          "value": "The amount of tokens being transferred"
        },
        "returns": {
          "_0": "`bytes4(keccak256(\"onERC1155Received(address,address,uint256,uint256,bytes)\"))` if transfer is allowed"
        }
      },
      "supportsInterface(bytes4)": {
        "details": "See {IERC165-supportsInterface}. Time complexity O(1), guaranteed to always use less than 30 000 gas."
      }
    },
    "title": "RewardEngine",
    "version": 1
  },
  "userdoc": {
    "kind": "user",
    "methods": {},
    "version": 1
  }
}